:02000002D0002C
:1040000000400D00C4590D00000006000C00050121
:08401000040135080000000066
:0440180068570D00D8
:10401C0009480A49884208B505D0094A824202D0AB
:10402C00121A01F059FB0748074A0021121A01F035
:10403C0061FB014808BD00BFDCE5032034590D00CD
:10404C0044E6032044E60320F0E7032070B5074E56
:10405C00074C00F0E7FBA41BA4080025A54200D1E7
:10406C0070BD56F8043B98470135F7E700590D0031
:10407C0024590D0000F014B808B500F02BF8BDE879
:10408C00084000F091BB00F041BA00F047BA00784C
:10409C00B0FA80F0400970470123037070470000AC
:1040AC0008B5022200230849084800F01FFA112124
:1040BC00074800F064F800F0B5FCBDE808404FF488
:1040CC00165100F0A3BC00BF48E603207C570D003E
:1040DC004CE6032038B51248124C00F05FF8206013
:1040EC0000F0A0FC2468002C054616DA2D2100F007
:1040FC00D9FA61420A22284600F0E3FA00F092FC59
:10410C00094900F0CBFA00F08DFC00F0CEFABDE8C6
:10411C0038404FF47A7000F005BB2146EAE700BF47
:10412C004CE6032048E6032087570D00014800F0B9
:10413C0003B800BF4CE603207047A1F11003DBB2BB
:10414C00132B10B50C4619D8012202FA03F313F005
:10415C000B1F13D000F092FE232100F07FFD00F026
:10416C008DFE036821469B68984700F087FE00F09F
:10417C007CFDBDE810400A2000F0D4BA10BD13B588
:10418C000446019100F07AFE00F032FD01992046C0
:10419C0002B0BDE81040FFF7D0BF000010B500F032
:1041AC006DFE232100F05AFD00F068FE022223214F
:1041BC0000F04DFD00F062FE03685B69984784B225
:1041CC0000F05CFE03685B69984740EA042004B287
:1041DC0000F054FE00F049FDA0B200F0D3FF044BF8
:1041EC004FF0333201F062F901F048FA80B210BDA1
:1041FC003333F33F08B5024B1B689B68019308BD32
:10420C006802030008B5024B1B68DB68019308BD0C
:10421C006802030008B5024B1B685B68019308BD7C
:10422C001802030008B5024B1B685B69019308BDBB
:10423C001802030008B5024B1B685B6C019308BDA8
:10424C004802030008B5024B1B689B6C019308BD28
:10425C004802030008B5024B1B685B69019308BD5B
:10426C006402030008B5024B1B681B68019308BD70
:10427C003C02030008B5024B1B68DB68019308BDC8
:10428C003C02030008B5024B1B681B69019308BD77
:10429C003C02030008B5024B1B685B69019308BD27
:1042AC003C02030008B5024B1B689B69019308BDD7
:1042BC003C02030008B5024B1B68DB69019308BD87
:1042CC003C02030008B5024B1B689B6A019308BDB6
:1042DC003C02030008B5024B1B68DB68019308BD68
:1042EC002802030008B5024B1B689B69019308BDAB
:1042FC002802030008B5024B1B68DB69019308BD5B
:10430C002802030008B5024B1B681B6A019308BD09
:10431C002802030008B5024B1B685B6A019308BDB9
:10432C002802030008B5024B1B689B6A019308BD69
:10433C002802030008B5024B1B68DB6A019308BD19
:10434C002802030008B5024B1B681B6B019308BDC8
:10435C002802030008B5024B1B681B6C019308BDB7
:10436C002802030008B5024B1B681B6D019308BDA6
:10437C002802030008B5024B1B681B68019308BD9B
:10438C004C02030008B5024B1B685B68019308BD27
:10439C004C02030008B5024B1B681B69019308BD56
:1043AC004C02030008B5024B1B685B69019308BD06
:1043BC004C02030008B5024B1B689B69019308BDB6
:1043CC004C02030008B5024B1B68DB69019308BD66
:1043DC004C02030008B5024B1B681B6A019308BD15
:1043EC004C02030008B5024B1B685B68019308BDC7
:1043FC002002030008B5024B1B685B69019308BDE2
:10440C002002030008B5034B1B68D3F888300193D6
:10441C0008BD00002002030008B5034B1B68D3F84D
:10442C009430019308BD00002002030008B5024B34
:10443C001B685B68019308BD4002030008B5024B82
:10444C001B689B68019308BD4002030008B5024B32
:10445C001B68DB68019308BD4002030008B5024BE2
:10446C001B681B69019308BD4002030008B5024B91
:10447C001B685B69019308BD4002030008B5024B41
:10448C001B689B69019308BD4002030008B5024BF1
:10449C001B68DB69019308BD4002030008B5024BA1
:1044AC001B681B6A019308BD4002030008B5024B50
:1044BC001B681B6B019308BD4002030008B5024B3F
:1044CC001B685B6B019308BD4002030008B5024BEF
:1044DC001B681B6C019308BD4002030008B5024B1E
:1044EC001B685B6C019308BD4002030008B5024BCE
:1044FC001B681B68019308BD4402030008B5024BFE
:10450C001B68DB6B019308BD4402030008B5024B2A
:10451C001B681B68019308BD1C02030008B5024B05
:10452C001B685B68019308BD1C02030008B5024BB5
:10453C001B685B6C019308BD1C02030000224068E1
:10454C001146FFF7ABBF002240681146FFF7B6BF1C
:10455C0040680022FFF7AABF4068002281F00101E9
:10456C00FFF794BF002340681A461946FFF786BF31
:10457C00002340681A461946FFF778BF00224068AE
:10458C001146FFF76BBF002240681146FFF756BF7C
:10459C00406800220221FFF759BF002340681A46E9
:1045AC00FFF744BF024B03225A60024A1A6070475D
:1045BC0050E6032094570D0010B50446006818B15E
:1045CC00FFF7ACFF0023236010BD10B50446FFF7C6
:1045DC00F3FF204610BD000010B5094B094C022218
:1045EC0000201A60084B2060A080A071A360FFF728
:1045FC00F9FE2046054A0649BDE8104000F066BCAD
:10460C0064E6032058E603200000FFFF44E6032085
:10461C00D7450D0010B50446006808B1FFF712FE2F
:10462C00204610BD10B5064C002320462360FFF732
:10463C0001FE2046034A0449BDE8104000F046BC88
:10464C0068E6032044E6032021460D00F8B5064633
:10465C000D468F180024BD420CD0336815F8011B91
:10466C009B6830469847031E01DB1C44F3E7002C83
:10467C0008BF1C462046F8BD13B50446084659B180
:10468C00019101F063F823680199DB68024620462A
:10469C0002B0BDE81040184702B010BD08B5FFF7D6
:1046AC00EBFF08BD03689B68184738B50D2105461C
:1046BC00FFF7F8FF0A2104462846FFF7F3FF2044D2
:1046CC0038BD30B58BB000238DF82430012A98BF4B
:1046DC000A2209AC0D46B1FBF2F101FB125303F0B7
:1046EC00FF03092B94BF30333733DBB2AA4204F8F3
:1046FC00013DEFD92146FFF7BFFF0BB030BD0000E5
:10470C00014B024A1A6070476CE60320C8570D0033
:10471C00024B1A68024B1A60704700BFDCE503209D
:10472C0070E603200021FFF765BE10B583680446D0
:10473C0013B1032201469847204610BD10B504461C
:10474C00FFF7F3FF204610BD0348044A0449002339
:10475C00836000F0BBBB00BF74E6032044E603207B
:10476C0049470D00014B1860704700BFE0E503207E
:10477C0008B50B4B43B100F055F903681B6998471A
:10478C00002801DDAFF30080064B43B100F0C8F9FF
:10479C0003681B699847002801DDAFF3008008BD52
:1047AC00000000000000000008B5FFF7E1FFFFF774
:1047BC0039FD014B186008BDD4E703200248034AB9
:1047CC000349121A00F088BF00F4032004F40320FC
:1047DC0030590D0007B5002300931A466FF077018E
:1047EC00FFF71AFE03B05DF804FB000007B5438821
:1047FC000A2B08D0502B0BD1094B1B684BB103B0C3
:10480C005DF804EB1847FFF7E5FF03B05DF804FB18
:10481C00002300931A466FF07701FFF7FDFDF4E7D4
:10482C0088E6032038B5124C1248134D0021FFF7CF
:10483C007DFE2368AB42114B0CBF012200221A7083
:10484C0002D0FFF7BBFF2560FFF7E4FC044600F045
:10485C0059FF0B4B13B12046AFF3008000210848E1
:10486C00FFF74CFEBDE8384006480021FFF7CABDF3
:10487C0000F4032071470D001E1C279A84E60320C8
:10488C0000000000F9470D00704710B518210446D0
:10489C0000F021FB204610BDF0B5037D062B8DB03A
:1048AC000E4600F104074FF0000412D000F1080589
:1048BC0015F8011D0A223046FFF703FFAF420444EE
:1048CC0019D0002CF4D02E213046FFF7EBFE044417
:1048DC00EEE72F236A4639460A208DF80040FFF791
:1048EC00B9FC684600F032FF33680246DB68694663
:1048FC0030469847044620460DB0F0BD10B5054B28
:10490C000446112240F8043B002100F0F3FE20463F
:10491C0010BD00BFF0570D000346074A10B543F811
:10492C00042B01F1100251F8044B43F8044B914253
:10493C00F9D10A781A7010BDF0570D0010B59DF81A
:10494C00084044EA032343EA024242EA0161042399
:10495C004160037510BD13B5CB7800938B784A7802
:10496C000978FFF7EBFF02B010BD41747047704738
:10497C0008B50021007CFFF71DFD40EAE07008BD82
:10498C0008B50121007CFFF715FD40EAE07008BD79
:10499C0008B5007CFFF706FD20EAE07008BD08B5FD
:1049AC00007CFFF7F7FC20EAE07008BD13B5044665
:1049BC00007C0191FFF7F6FC0028019901DC607C7A
:1049CC0020B1207CFFF7FEFC20EAE07002B010BDA5
:1049DC00007CFFF7FFBC10B51421044600F07BFAF5
:1049EC00204610BD10B54FF47A73044608460021DA
:1049FC00C4E90113044B2360012320746374114632
:104A0C00FFF7B8FC204610BD04580D00007C0022B6
:104A1C00FFF7B8BC10B514220446002100F06AFE62
:104A2C00204610BD10B5104C88B003A8FFF7F2FF5C
:104A3C002178BFF35B8F11F0010111D12046019158
:104A4C00FFF725FB019958B103AA0848FFF7CAFFE5
:104A5C002046FFF721FB064A0649044800F036FAC7
:104A6C00024808B010BD00BF8CE6032090E603207E
:104A7C0044E603207B490D0070474174704708B52C
:104A8C00007CFFF71FFC20EAE07008BD08B5007C35
:104A9C00FFF7F8FB20EAE07008BD08B5007CFFF7D3
:104AAC0001FC40EAE07008BD08B5007CFFF7F2FBA2
:104ABC0040EAE07008BD007CFFF7FCBB37B5457CD5
:104ACC0004462DB1207C03B0BDE83040FFF7D2BBCB
:104ADC00007C0191FFF7F6FB00280199F2DC2846D7
:104AEC0003B030BD10B51421044600F0F4F9204693
:104AFC0010BD000010B54FF0000C044608461146DE
:104B0C004FF47A72C4E901C2044A22600122207473
:104B1C0062741A46FFF7A6FB204610BD34580D00F0
:104B2C0013B50E4C2178BFF35B8F11F0010112D13C
:104B3C0020460191FFF7ABFA019960B1084A094B85
:104B4C000948FFF7D7FF2046FFF7A6FA074A08499E
:104B5C00054800F0BBF9044802B010BDA4E60320E0
:104B6C00A8E603202CE70320B0E7032044E603204B
:104B7C00854A0D007047F8B5064615460C468F1849
:104B8C00BC4206D0336814F8011B9B68304698472A
:104B9C00F6E72846F8BD007C0022FFF7B3BB007C8B
:104BAC000021FFF7B7BB007C0021FFF7BBBB007CEB
:104BBC000021FFF7BFBB007C0021FFF7C3BB10B582
:104BCC001421044600F087F9204610BD10B54FF4AF
:104BDC007A73044608460021C4E90113034B236091
:104BEC0020741146FFF7B6FB204610BD64580D002B
:104BFC000023007C1A461946FFF76CBB7FB50022D8
:104C0C001423CDE90122ADF804300B788DF808306F
:104C1C004B680393CB680493007C0B7A059301A932
:104C2C00FFF7A0FB07B05DF804FB1FB5003B8DF848
:104C3C0000104FF06401039118BF012369460192E3
:104C4C008DF80830FFF7DAFF05B05DF804FB01239F
:104C5C00FFF7EBBF007C0022FFF744BBC9B2FFF7A4
:104C6C00F9BF007C0022FFF745BB0121FFF7F9BF1C
:104C7C00002240681146FFF7F1BB00224068114644
:104C8C00FFF70CBC002240681146FFF717BC4068C8
:104C9C000022FFF70BBC4068002281F00101FFF7F6
:104CAC00F5BB002340681A461946FFF7E7BB002303
:104CBC0040681A461946FFF7D9BB002240681146D6
:104CCC00FFF7BCBB406800220221FFF7BFBB0023EB
:104CDC0040681A46FFF7AABB024B04225A60024AEC
:104CEC001A607047C4E703208C580D0000234068FD
:104CFC001A46FFF79BBB406800220221FFF7A6BBB8
:104D0C00002240681146FFF799BB0022406811460B
:104D1C00FFF7A4BB002340681A461946FFF7A6BB51
:104D2C00002340681A461946FFF7A8BB40680021CB
:104D3C00FFF7CCBB40680021FFF7D0BB40680022D6
:104D4C0081F00101FFF7A2BB40680022FFF7AEBB68
:104D5C00002240681146FFF7B1BB002240681146A3
:104D6C00FFF79CBB2DE9F043002495B016460D4689
:104D7C000746FFF7C3FD214618220EA8009400F049
:104D8C00B9FC4023CDE90C3421466B460CAA3046C5
:104D9C00FFF738FA0446002846D10246012168681C
:104DAC00FFF75CFB0221804622466868FFF756FB42
:104DBC00009E81462146002E36D0002934D17368DE
:104DCC00022B03D00A2B0BD0F669F4E7B8F1000FD5
:104DDC0004D0716938460431FFF7BDFD4146F3E755
:104DEC00B9F1000F01D14946EEE77469102201A810
:104DFC0000F080FC06238DF8143001AD04F108039B
:104E0C001834186859682A4603C20833A342154659
:104E1C00F7D101A906A807ADFFF77EFD0FCD3C1D0C
:104E2C000FC42B682370DEE70098FFF7E3F93846D0
:104E3C0015B0BDE8F0830000024B034A1A60002253
:104E4C005A607047CCE70320C8580D0038B50023D2
:104E5C0020254380142304460380856005610649A0
:104E6C00284600F03AF804496060284600F035F80E
:104E7C00E060204638BD00BFFC580D0030B50F4D2A
:104E8C002978BFF35B8F11F0010487B013D128464A
:104E9C00FFF7FDF878B101A8FFF7D8FF01AA21466A
:104EAC000748FFF793FE2846FFF7F6F8054A064930
:104EBC00034800F00BF8024807B030BDD8E70320D8
:104ECC00DCE7032044E60320814B0D000B46014632
:104EDC00184600F0F3BBFFF7D8B8FFF7D4B80000C2
:104EEC0081F0004102E000BF83F0004330B54FEA8F
:104EFC0041044FEA430594EA050F08BF90EA020FFC
:104F0C001FBF54EA000C55EA020C7FEA645C7FEA8E
:104F1C00655C00F0E2804FEA5454D4EB5555B8BFB1
:104F2C006D420CDD2C4480EA020281EA030382EA22
:104F3C00000083EA010180EA020281EA0303362DB4
:104F4C0088BF30BD11F0004F4FEA01314FF4801C87
:104F5C004CEA113102D0404261EB410113F0004F99
:104F6C004FEA03334CEA133302D0524263EB430350
:104F7C0094EA050F00F0A780A4F10104D5F1200EEE
:104F8C000DDB02FA0EFC22FA05F2801841F1000149
:104F9C0003FA0EF2801843FA05F359410EE0A5F11D
:104FAC0020050EF1200E012A03FA0EFC28BF4CF04E
:104FBC00020C43FA05F3C01851EBE37101F0004504
:104FCC0007D54FF0000EDCF1000C7EEB00006EEB11
:104FDC000101B1F5801F1BD3B1F5001F0CD349089B
:104FEC005FEA30004FEA3C0C04F101044FEA4452F2
:104FFC0012F5800F80F09A80BCF1004F08BF5FEA79
:10500C00500C50F1000041EB045141EA050130BD58
:10501C005FEA4C0C404141EB0101013C28BFB1F56A
:10502C00801FE9D291F0000F04BF01460020B1FAB5
:10503C0081F308BF2033A3F10B03B3F120020CDA88
:10504C000C3208DD02F1140CC2F10C0201FA0CF066
:10505C0021FA02F10CE002F11402D8BFC2F1200CCB
:10506C0001FA02F120FA0CFCDCBF41EA0C01904081
:10507C00E41AA2BF01EB0451294330BD6FEA0404CA
:10508C001F3C1CDA0C340EDC04F11404C4F12002B5
:10509C0020FA04F001FA02F340EA030021FA04F3C7
:1050AC0045EA030130BDC4F10C04C4F1200220FA1E
:1050BC0002F001FA04F340EA0300294630BD21FA5C
:1050CC0004F0294630BD94F0000F83F4801306BF22
:1050DC0081F480110134013D4EE77FEA645C18BF16
:1050EC007FEA655C29D094EA050F08BF90EA020FAD
:1050FC0005D054EA000C04BF1946104630BD91EAA5
:10510C00030F1EBF0021002030BD5FEA545C05D1A7
:10511C004000494128BF41F0004130BD14F58004E6
:10512C003CBF01F5801130BD01F0004545F0FE415A
:10513C0041F470014FF0000030BD7FEA645C1ABF8F
:10514C00194610467FEA655C1CBF0B46024650EAC6
:10515C00013406BF52EA033591EA030F41F40021F2
:10516C0030BD00BF90F0000F04BF0021704730B578
:10517C004FF4806404F132044FF000054FF000014D
:10518C0050E700BF90F0000F04BF0021704730B50E
:10519C004FF4806404F1320410F0004548BF4042E3
:1051AC004FF000013EE700BF42004FEAE2014FEA38
:1051BC0031014FEA02701FBF12F07F4393F07F4F13
:1051CC0081F06051704732F07F4208BF704793F016
:1051DC007F4F04BF41F40021704730B54FF4607429
:1051EC0001F0004521F000411CE700BF50EA01022C
:1051FC0008BF704730B54FF000050AE050EA0102D5
:10520C0008BF704730B511F0004502D5404261EB44
:10521C0041014FF4806404F132045FEA915C3FF485
:10522C00D8AE4FF003025FEADC0C18BF03325FEA22
:10523C00DC0C18BF033202EBDC02C2F1200300FAD3
:10524C0003FC20FA02F001FA03FE40EA0E0021FAF8
:10525C0002F11444BDE600BF70B54FF0FF0C4CF4E6
:10526C00E06C1CEA11541DBF1CEA135594EA0C0F98
:10527C0095EA0C0F00F0DEF82C4481EA030621EAD3
:10528C004C5123EA4C5350EA013518BF52EA03350E
:10529C0041F4801143F4801338D0A0FB02CE4FF0C0
:1052AC000005E1FB02E506F00042E0FB03E54FF0F0
:1052BC000006E1FB03569CF0000F18BF4EF0010EE8
:1052CC00A4F1FF04B6F5007F64F5407404D25FEAE4
:1052DC004E0E6D4146EB060642EAC62141EA555197
:1052EC004FEAC52040EA5E504FEACE2EB4F1FD0CD9
:1052FC0088BFBCF5E06F1ED8BEF1004F08BF5FEA57
:10530C00500E50F1000041EB045170BD06F0004608
:10531C0046EA010140EA020081EA0301B4EB5C04B5
:10532C00C2BFD4EB0C0541EA045170BD41F48011AD
:10533C004FF0000E013C00F3AB8014F1360FDEBFD2
:10534C00002001F0004170BDC4F10004203C35DAAE
:10535C000C341BDC04F11404C4F1200500FA05F331
:10536C0020FA04F001FA05F240EA020001F00042D2
:10537C0021F0004110EBD37021FA04F642EB060148
:10538C005EEA430E08BF20EAD37070BDC4F10C0472
:10539C00C4F1200500FA04F320FA05F001FA04F236
:1053AC0040EA020001F0004110EBD37041F1000122
:1053BC005EEA430E08BF20EAD37070BDC4F120052D
:1053CC0000FA05F24EEA020E20FA04F301FA05F295
:1053DC0043EA020321FA04F001F0004121FA04F23D
:1053EC0020EA020000EBD3705EEA430E08BF20EA0D
:1053FC00D37070BD94F0000F0FD101F00046400047
:10540C0041EB010111F4801F08BF013CF7D041EAC8
:10541C00060195F0000F18BF704703F000465200CC
:10542C0043EB030313F4801F08BF013DF7D043EA9D
:10543C000603704794EA0C0F0CEA135518BF95EA53
:10544C000C0F0CD050EA410618BF52EA4306D1D1DA
:10545C0081EA030101F000414FF0000070BD50EAF9
:10546C00410606BF1046194652EA430619D094EA83
:10547C000C0F02D150EA013613D195EA0C0F05D16D
:10548C0052EA03361CBF104619460AD181EA0301C1
:10549C0001F0004141F0FE4141F470014FF0000079
:1054AC0070BD41F0FE4141F4780170BD70B54FF014
:1054BC00FF0C4CF4E06C1CEA11541DBF1CEA135594
:1054CC0094EA0C0F95EA0C0F00F0A7F8A4EB050476
:1054DC0081EA030E52EA03354FEA013100F088806D
:1054EC004FEA03334FF0805545EA131343EA126336
:1054FC004FEA022245EA111545EA10654FEA0026EB
:10550C000EF000419D4208BF964244F1FD0404F5A3
:10551C00407402D25B084FEA3202B61A65EB0305FF
:10552C005B084FEA32024FF480104FF4002CB6EBBC
:10553C00020E75EB030E22BFB61A754640EA0C003C
:10554C005B084FEA3202B6EB020E75EB030E22BF7C
:10555C00B61A754640EA5C005B084FEA3202B6EBBD
:10556C00020E75EB030E22BFB61A754640EA9C007C
:10557C005B084FEA3202B6EB020E75EB030E22BF4C
:10558C00B61A754640EADC0055EA060E18D04FEA0A
:10559C00051545EA16754FEA06164FEAC30343EAAA
:1055AC0052734FEAC2025FEA1C1CC0D111F4801F77
:1055BC000BD141EA00014FF000004FF0004CB6E770
:1055CC0011F4801F04BF01430020B4F1FD0C88BF0F
:1055DC00BCF5E06F3FF6AFAEB5EB030C04BFB6EB1A
:1055EC00020C5FEA500C50F1000041EB045170BD0D
:1055FC000EF0004E4EEA113114EB5C04C2BFD4EB3A
:10560C000C0541EA045170BD41F480114FF0000EBD
:10561C00013C90E645EA060E8DE60CEA135594EA39
:10562C000C0F08BF95EA0C0F3FF43BAF94EA0C0F3C
:10563C000AD150EA01347FF434AF95EA0C0F7FF4B1
:10564C0025AF104619462CE795EA0C0F06D152EA05
:10565C0003353FF4FDAE1046194622E750EA4106E9
:10566C0018BF52EA43067FF4C5AE50EA41047FF4FA
:10567C000DAF52EA43057FF4EBAE12E74A0011D2AC
:10568C0012F5001211D20DD56FF47873B3EB625290
:10569C000ED44FEAC12343F0004343EA505323FA9C
:1056AC0002F070474FF00000704750EA013002D111
:1056BC004FF0FF3070474FF00000704710B5054CAD
:1056CC0013462CB10A4601460220AFF3008010BDF0
:1056DC002046FCE7000000000A44914200F1FF3331
:1056EC0000D1704710B511F8014B03F8014F9142EE
:1056FC00F9D110BD02440346934200D1704703F820
:10570C00011BF9E738B50D4B1D68AB6B04467BB933
:10571C001820FEF7FBFE0A4A0A4BA863C0E90023D7
:10572C00094B83600B23838101220023C0E90423EE
:10573C00AB6B00221C615A6138BD00BFE0E5032051
:10574C000E33CDAB34126DE6ECDE0500034613F8D8
:10575C00012B002AFBD1181A013870471D400D008F
:10576C0059400D0081400D0085400D0000000000E7
:10577C004C756D696E6F7369747900206C780000DC
:10578C000000000000000000A7450D009D450D0025
:10579C0093450D0089450D007D450D0071450D00AB
:1057AC00394D0D00414D0D0065450D005D450D0059
:1057BC0053450D0049450D00714D0D006170700091
:1057CC0025592D256D2D25645425483A254D3A250E
:1057DC0053257A0061736374696D650000000000E5
:1057EC0000000000A5480D0095480D0097480D00DD
:1057FC0000000000000000007B490D00E3490D0093
:10580C00B9490D0059460D00AB490D007D490D00FD
:10581C008D490D00DD490D009D490D0077490D00A6
:10582C000000000000000000854A0D00F14A0D0048
:10583C00C94A0D0059460D00994A0D00B54A0D0094
:10584C00A74A0D00C34A0D00874A0D008B4A0D0074
:10585C000000000000000000814B0D00CB4B0D0040
:10586C00A34B0D00834B0D00AB4B0D00B34B0D0048
:10587C00BB4B0D00C34B0D000000000000000000EE
:10588C00DB4C0D00D14C0D00C74C0D007D4C0D00B8
:10589C00BB4C0D00AF4C0D00394D0D00414D0D00B2
:1058AC00A34C0D009B4C0D00914C0D00874C0D0032
:1058BC00714D0D000000000000000000F94C0D00BF
:1058CC00034D0D000D4D0D00174D0D00214D0D001C
:1058DC002D4D0D00394D0D00414D0D00494D0D0064
:1058EC00554D0D005D4D0D00674D0D00714D0D00BA
:1058FC000000000039410D00B1450D00E5450D00DB
:10590C0031460D000D470D001D470D0055470D008C
:10591C00E54C0D00454E0D0000000000000000009D
:04592C000000000077
:045930000000000073
:10593400E0570D00E4E50320000000000000000033
:105944000000000000000000000000000000000053
:105954000000000000000000000000000000000043
:105964000000000000000000000000000000000033
:105974000000000000000000000000000000000023
:105984000000000000000000000000000000000013
:0859940000000000000000000B
:10599C00FFFFFFFF00000102030405060708090AC8
:1059AC000B0C0D0E0F101112131415161718191AC3
:0859BC001B1C1D1E1F2028000A
:0459C40078563412CB
:04000003D000401CCD
:00000001FF
